:020000040000FA
:10000000000102030405060708090A0B0C0D0E0F78
:10001000101112131415161718191A1B1C1D1E1F68
:100020001F08403F081B103E443FBE03EF0CDF207B
:10003000FB00103F003F4037A02FBE035B00FB00DA
:10004000000000030001000600090A030C0C0E006A
:10005000100010130015001700091A0318001A00E9
:10006000100000130011101600191A030C0C1E00CA
:10007000000000030005000700090A0308000A0049
:10008000000000030001000600090A030C0C0E002A
:10009000100010130015001700091A0318001A00A9
:1000A000100000130011101600191A030C0C1E008A
:1000B000000000030005000700090A0308000A0009
:1000C000000000030001000600090A030C0C0E00EA
:1000D000100010130015001700091A0318001A0069
:1000E000100000130011101600191A030C0C1E004A
:1000F000000000030005000700090A0308000A00C9
:10010000000000030001000600090A030C0C0E00A9
:10011000100010130015001700091A0318001A0028
:10012000100000130011101600191A030C0C1E0009
:10013000000000030005000700090A0308000A0088
:10014000000000030001000600090A030C0C0E0069
:10015000100010130015001700091A0318001A00E8
:10016000100000130011101600191A030C0C1E00C9
:10017000000000030005000700090A0308000A0048
:10018000000000030001000600090A030C0C0E0029
:10019000100010130015001700091A0318001A00A8
:1001A000100000130011101600191A030C0C1E0089
:1001B000000000030005000700090A0308000A0008
:1001C000000000030001000600090A030C0C0E00E9
:1001D000100010130015001700091A0318001A0068
:1001E000100000130011101600191A030C0C1E0049
:1001F000000000030005000700090A0308000A00C8
:10020000000000030001000600090A030C0C0E00A8
:10021000100010130015001700091A0318001A0027
:10022000100000130011101600191A030C0C1E0008
:10023000000000030005000700090A0308000A0087
:10024000000000030001000600090A030C0C0E0068
:10025000100010130015001700091A0318001A00E7
:10026000100000130011101600191A030C0C1E00C8
:10027000000000030005000700090A0308000A0047
:10028000000000030001000600090A030C0C0E0028
:10029000100010130015001700091A0318001A00A7
:1002A000100000130011101600191A030C0C1E0088
:1002B000000000030005000700090A0308000A0007
:1002C000000000030001000600090A030C0C0E00E8
:1002D000100010130015001700091A0318001A0067
:1002E000100000130011101600191A030C0C1E0048
:1002F000000000030005000700090A0308000A00C7
:10030000000000030001000600090A030C0C0E00A7
:10031000100010130015001700091A0318001A0026
:10032000100000130011101600191A030C0C1E0007
:10033000000000030005000700090A0308000A0086
:10034000000000030001000600090A030C0C0E0067
:10035000100010130015001700091A0318001A00E6
:10036000100000130011101600191A030C0C1E00C7
:10037000000000030005000700090A0308000A0046
:10038000000000030001000600090A030C0C0E0027
:10039000100010130015001700091A0318001A00A6
:1003A000100000130011101600191A030C0C1E0087
:1003B000000000030005000700090A0308000A0006
:1003C000000000030001000600090A030C0C0E00E7
:1003D000100010130015001700091A0318001A0066
:1003E000100000130011101600191A030C0C1E0047
:1003F000000000030005000700090A0308000A00C6
:10040000000000030001000600090A030C0C0E00A6
:10041000100010130015001700091A0318001A0025
:10042000100000130011101600191A030C0C1E0006
:10043000000000030005000700090A0308000A0085
:10044000000000030001000600090A030C0C0E0066
:10045000100010130015001700091A0318001A00E5
:10046000100000130011101600191A030C0C1E00C6
:10047000000000030005000700090A0308000A0045
:10048000000000030001000600090A030C0C0E0026
:10049000100010130015001700091A0318001A00A5
:1004A000100000130011101600191A030C0C1E0086
:1004B000000000030005000700090A0308000A0005
:1004C000000000030001000600090A030C0C0E00E6
:1004D000100010130015001700091A0318001A0065
:1004E000100000130011101600191A030C0C1E0046
:1004F000000000030005000700090A0308000A00C5
:10050000000000030001000600090A030C0C0E00A5
:10051000100010130015001700091A0318001A0024
:10052000100000130011101600191A030C0C1E0005
:10053000000000030005000700090A0308000A0084
:100540001F08403F081B103E443FBE03EF0CDF2056
:10055000FB00103F003F4037A02FBE035B00FB00B5
:10056000101112131415161718191A1B1C1D1E1F13
:10057000000102030405060708090A0B0C0D0E0F03
:10058000FF3FFF3FFF3FFF3FFF3FFF3FFF3FFF3F7B
:10059000FF3FFF3FFF3FFF3FFF3FFF3FFF3FFF3F6B
:1005A000FF3FFF3FFF3FFF3FFF3FFF3FFF3FFF3F5B
:1005B000FF3FFF3FFF3FFF3FFF3FFF3FFF3FFF3F4B
:101C00008E31192E080001000100010001000100C1
:101C100001000100010001000100010001000100BC
:101C200001000100010001000100010001000100AC
:101C300001007E1020001C2EA1278E3194278E31AA
:101C4000AC278E31003A0319202E20008C1E2C2E3A
:101C500022008C134D278E312000911D2C2E35260D
:101C60008E31803022008C062C2E91112400941E7F
:101C70006B2E141D542E01302000A0020030A13B19
:101C8000200A0319210A0319512E2208860023086D
:101C900087000108240091002000A20A0319A30A6A
:101CA000352F24009101352F003020002102803093
:101CB000031920020318352F220886002308870005
:101CC0002400110881002000A20A0319A30AA00A17
:101CD0000319A10A352F151370302000A2002130FE
:101CE000A3002400141D312F0030200021020230F7
:101CF00003192002031C512E70308600213087000A
:101D00000108FC00192F7030A4002130A500240820
:101D10008600250887002630C03F0030E2278E313C
:101D20000130C03F0030E2278E310130C03F00302B
:101D3000E2278E310830C03F0030E2278E3100307C
:101D4000C03F2030E2278E310330C03F0030E22711
:101D50008E312030C03F0030E2278E310430C03F4A
:101D60000030E2278E312030C03F0030E2278E3134
:101D70000530C03F0030E2278E310030C03F0130D7
:101D8000E2278E310630C03F0030E2278E3100302E
:101D9000C03F0E30E2278E310730C03F0030E227CF
:101DA0008E314230C03F7530E2278E316330C03F04
:101DB0006B30E2278E312030C03F4330E2278E3136
:101DC0006C30C03F6930E2278E316330C03F6B30EA
:101DD000C13F0230A4070318A50A2630A0007030C6
:101DE000A101A2002130A3002D2F4D278E312D2FD0
:101DF000F9278E31F000413FF10038278E312D2F29
:101E0000F9278E31F600413FF7007030860021300F
:101E100087004431403FF800413FF9007630FA0036
:101E20002130FB0050278E312D2F8E3100268E3130
:101E30002D2F7C08013A03192D2F033A0319832E05
:101E4000013A03192D2F073A0319F52E0F3A0319FA
:101E5000002F1E3A0319F82E152F7C08240091003C
:101E6000352F11082000A001A1012400151608003B
:101E700000308B1B0130F2008B137108230092009D
:101E80007008910015139517151615158B2723004B
:101E900015117208031D8B1708008D31FE2D0800E7
:101EA0000130F8020030F93B790878040319662FF5
:101EB0007708EC278E31F40A6F278E310230FA074B
:101EC0000318FB0AF60A0319F70A502F7708EC27C4
:101ED0008E316F270230FA070318FB0A0800003022
:101EE0008B1B0130F5008B137108230092007008E2
:101EF000910073089400720893007408031D9516EE
:101F00000319951215139517151215158B277508BA
:101F1000031D8B170800230055309600AA30960049
:101F20009514000000000800FE302400930090305B
:101F30009200263095001614200091112100911175
:101F40000800A6278E31B0278E31D82F723021009D
:101F500099009A01980108000B0C890C01390800BE
:101F6000803022008C008D018E013F3023008D00D7
:101F70001F308C007F3021008C00FF308E00083035
:101F8000900024008C0122008D0124008D0122008C
:101F90008E01FF3021008E0024008E0108302100C8
:101FA0009000240090012100951722009D01080057
:101FB00021001508C0391238950020009501FD0157
:101FC0000B110800C13F0230A4070318A50A24081A
:101FD0008600250887000800F1007608F0007A08DE
:101FE00086007B088700403FF200413FF300F40188
:101FF000080070308600213087004231403F0800E1
:020000040001F9
:10E000000000FF00FF00FF00FF00FF00FF00FF0017
:10E01000FF00FF00FF00FF00FF00FF00FF00FF0008
:10E02000FF00FF00FF00FF00FF00FF00FF00FF00F8
:10E03000FF00FF00FF00FF00FF00FF00FF00FF00E8
:10E040001F000100020003000400FF00FF00FF00AA
:10E05000FF00FF00FF00FF00FF00FF00FF00FF00C8
:10E06000FF00FF00FF00FF00FF00FF00FF00FF00B8
:10E07000FF00FF00FF00FF00FF00FF00FF001F0088
:10E080000000FF00FF00FF00FF00FF00FF00FF0097
:10E09000FF00FF00FF00FF00FF00FF00FF00FF0088
:10E0A000FF00FF00FF00FF00FF00FF00FF00FF0078
:10E0B000FF00FF00FF00FF00FF00FF00FF00FF0068
:10E0C0000000FF00FF00FF00FF00FF00FF00FF0057
:10E0D000FF00FF00FF00FF00FF00FF00FF00FF0048
:10E0E000FF00FF00FF00FF00FF00FF00FF00FF0038
:10E0F000FF00FF00FF00FF00FF00FF00FF00FF0028
:10E100000000FF00FF00FF00FF00FF00FF00FF0016
:10E11000FF00FF00FF00FF00FF00FF00FF00FF0007
:10E12000FF00FF00FF00FF00FF00FF00FF00FF00F7
:10E13000FF00FF00FF00FF00FF00FF00FF00FF00E7
:10E140000000FF00FF00FF00FF00FF00FF00FF00D6
:10E15000FF00FF00FF00FF00FF00FF00FF00FF00C7
:10E16000FF00FF00FF00FF00FF00FF00FF00FF00B7
:10E17000FF00FF00FF00FF00FF00FF00FF00FF00A7
:10E180000000FF00FF00FF00FF00FF00FF00FF0096
:10E19000FF00FF00FF00FF00FF00FF00FF00FF0087
:10E1A000FF00FF00FF00FF00FF00FF00FF00FF0077
:10E1B000FF00FF00FF00FF00FF00FF00FF00FF0067
:10E1C0000000FF00FF00FF00FF00FF00FF00FF0056
:10E1D000FF00FF00FF00FF00FF00FF00FF00FF0047
:10E1E000FF00FF00FF00FF00FF00FF00FF00FF0037
:10E1F000FF00FF00FF00FF00FF00FF00FF00FF0027
:08000000FF3FFF3FFF3FFF3F00
:04000E00E42FFF1AC2
:00000001FF
