:020000040000FA
:0600000095EF0CF0120068
:020006001200E6
:0600080004EF08F01200F5
:060018000CEF08F01200DD
:02001E000100DF
:0C0020000E100000EA00000007000000C5
:04002C0079EC06F075
:10003000A098636A626A0F01266B73EC06F00F01E9
:100040000EEC06F0DF6ADF500B6E0C6A080E0B5CDC
:10005000000E0C5810E2DF50040DF3CFE9FFF4CF8F
:10006000EAFF000EE9260D0EEA22EE6AEE6AEE6A5B
:10007000EE6ADF2AE8D7658C0F01386B6598659CBE
:1000800062A607D062960E01136B186B196B1A6B80
:10009000F7D70E01010E2A6F2B6F2C6B2D6B206B87
:1000A000DF6A020EDF5C11E2EA6ADF347CEC06F004
:1000B000EA22EE6AED6AEA6ADF3483EC06F0EA22AD
:1000C000EE6AED6AC7EC05F0ECD70E01080E0B6F77
:1000D0000D0E0C6F0F01160E266F0D01200E026F14
:1000E0000D0E036F080E016F840E006F0E01016B81
:1000F000006BE55299EF05F079EC06F00E01000572
:1001000009E165BA07D0626A0F01368136890E01AE
:10011000020E006F6250040B06E00F013651040B13
:1001200002E0629446DB65B24AD06250010B0AE0FD
:100130000F013651010B06E079DFA0880E01040E95
:10014000006F62906250100B06E00F013651100BE9
:1001500002E024DB629862AC10D00F0136AD05D00E
:1001600015EC06F0730E86EC05F0629C0E0128512A
:1001700001E02807285101E10ED96250200B05E06B
:100180000F013651200B01E0F8DA6250020B0CE04F
:100190000F013651020B08E015EC06F0E6687F0E01
:1001A000E66E8AEC06F0636A040E0E01E76E001933
:1001B000E8AE02D0E73402D0E750005D02E2A19839
:1001C0002FD00F0136A72BD0DF6A040EDF5C27E2A9
:1001D00062A625D064CF21FE0E012151780BE842A2
:1001E000E842E842226F629621B504D0225191EC98
:1001F00006F003D0225196EC06F0EA22EF7022516D
:1002000002E1E4DA0AD0000EE66EE66A210EE66E3E
:100210000E0EE66E720E86EC05F0DF2AD6D7A19898
:10022000E55299EF05F04DEC06F0FD0EDBA403D08E
:10023000E66AFEEC05F0FD0EDBA204D0010EE66ED0
:10024000FEEC05F0FE0EDB500C6A260F0B6E0F0E57
:10025000F8EC05F08AEC05F0FD0EDBCFEFFF020EA7
:10026000E15C02E2E16AE552E16E99EF05F04DECE6
:1002700006F0FD0EDB5003E081EC05F002D0B8EC97
:1002800005F0E4EC05F0D9CFE9FFDACFEAFFEE5054
:10029000ED1003E1F36AF46A28D08AEC05F0A5ECCE
:1002A00006F0FB0EDBCFEEFFFC0EDBCFEDFF8AECA2
:1002B00005F0EE52FA0EDBCFEFFF400E9BEC06F09E
:1002C000880EAAEC06F0FD0EDB5003E081EC05F091
:1002D00002D0B8EC05F0EA22EF74DECF0BF0DDCFF0
:1002E0000CF00BC0F3FF0CC0F4FF020EE15C02E265
:1002F000E16AE552E16E99EF05F04DEC06F0FE0E75
:10030000DB5003E15BEC06F009D0BDEC05F03BEC03
:1003100006F0BDEC05F0010F3BEC06F0020EE15CCF
:1003200002E2E16AE552E16E99EF05F094EC05F026
:1003300065A816D06CEC06F0400EEE16EE6AEE6A7A
:10034000EE6A6CEC06F0EE7CDCDBEA22EF74400E29
:100350000B6E6CEC06F00B50EF166CEC06F0EF7CBD
:10036000E8D3656A0F01366B0E01006B12000E01B7
:10037000005110E1656A0F01366B0EEC06F0D08E6D
:10038000A288A088F28E65B602D06586FCD70E01E1
:10039000010E006F12000E012A5122E1010E2A6F98
:1003A0002B511EE1010E2B6F020E105D07E1B7DB32
:1003B000EE52EF6AB4DBC80EEF6E1200100510E1CA
:1003C000236BC3DBEE52080EEF6EBFDB47EC06F08B
:1003D000BCDB840EEF6E010E236F8FDB800EEF6EA1
:1003E00012000E012C6B2D6B020E105D06E19FECCE
:1003F00006F0B0DB36EC06F010D014510D01265D8E
:100400000E0115510D01275904E226CD14FE27CD0A
:1004100015FE61D884DB9EDB82DBC80EEF6E120016
:100420004DEC06F0000EDE6E0D0EDD6EA6DB040D4B
:10043000F4CF0CF0D9CFE9FFDACFEAFFF350EE2684
:100440000C50ED2267DBEF9EFD0EDB5002E190DBEE
:1004500001D057DBEA22DECFEEFFDDCFEDFF5ADB26
:10046000EF9C58DB040EE926000EEA22EF8C020E08
:10047000E15C02E2E16AE552E16E5BD365980E0150
:1004800013BF0DD018AF09D0020E106F2D5101E12E
:10049000A8DF0E012B6B2A6B12005BEF06F00D013B
:1004A00020AF0DD00E01010E106F2C5101E199DF2C
:1004B0000E012B6B2A6B29510DE1CBEF01F00E01E0
:1004C000020E106F1ADB840EEF6E2B6B2A6B295114
:1004D00001E161DF120079EC06F0080EDF6E0E011B
:1004E000145D000E15590AE214CEDFFF0F5102E130
:1004F000010E03D00F0502E1020E0F6FDF500C6AF0
:10050000E850145D146F0C501559156F08DBEE524E
:10051000DFCFEFFF280E1D6F0D0E1E6F13B10DD034
:10052000DF5017E011CEF6FF12CEF7FF112B000EB1
:1005300012230800F5503BDBF3D7DF500AE011CE61
:10054000E9FF12CEEAFF112B000E1223EF502FDB32
:10055000F4D7E552EED2A1DBF8DAEE52EFCFDFFFAF
:10056000DFCF0BF00B500E01195D000E1A5902E29D
:1005700019CEDFFFDF500B6E0C6AE850195D196F62
:100580000C501A591A6F010EDB6ADF50F36E010E20
:10059000DBCFF4FFF350F45C16E2010EDB50EA6AA5
:1005A000280FE96E0D0EEA22EF50E66E16CEE9FF37
:1005B00017CEEAFF162B000E1723E552E750EF6E19
:1005C000010EDB2AE2D7000ED8801955000E1A550D
:1005D0000DE2B5DBBFDAB9DAEF50400B03E146DBE1
:1005E000C80E02D043DB880EEF6E12D086DA840E7E
:1005F000EF6E1B511C1107E005D01CCEFAFF0E0157
:100600001B51F96EFADF0E01189F295101E1C3DE7B
:10061000020EE15C02E2E16AE552E16E8AD269DB38
:100620000E01138F60DB200EE66EE66AE66A000EAE
:10063000E66E0D0E95DA658CDF6A020EDF5C02E273
:10064000A6DAFBD70EDB020EE66E0E0E89DA659C8B
:100650000E01080E0B6F0D0E0C6F000E036F0D0ECA
:10066000046F03CE05FE066F22CD01FE015102E1AB
:10067000100E0BD0010EE66EE66A010EE66E0E0E4F
:10068000E66E010E43DA0E01200E006FE55251D2E4
:10069000800E0D01205D38E10E01C00E136F0D01BB
:1006A0002351030A1AE0010A09E0030A2BE10E01B3
:1006B0003A0E116F0F0E126F120E1ED0C4DAF10E29
:1006C000F6260F0EA3DA020E0E01B6DAF5CF14FEEF
:1006D000030EB2DAF5CF15FE1200040E225D0FE212
:1006E000B2DAF30EF6260F0E91DA11CEF6FF12CE25
:1006F000F7FF0800F5500E01146F156B12000E0184
:10070000136B12000E01136B1200C7DA0D01286B78
:10071000296B20511F0B020A0EE0030A09E0010AAF
:100720001BE10E01138F1F0517E10D01288314D063
:100730000E01138F11D00E01138F0D0124BF02D0B3
:10074000C1DA01D0C4DA40DACADA06E0E3D9EF5000
:10075000040B02E0010E286F0E0113AF07D0280E24
:10076000116F0D0E126F1381020E146F020EE15CF9
:1007700002E2E16AE552E16EDCD10F0126A10CD064
:10078000E4D9EF50800807E1CAD9EF50840803E1AB
:10079000DCD98C0EEF6E2691629A12000F0136851D
:1007A000629865820E01010E206F14DA750E86EFD5
:1007B00005F00E01206B0EDA740EA8D965920F01B8
:1007C000369562A402D06294FCD7120092DA0E0130
:1007D0002D0E286FFD0E211539E17E0E2115E84002
:1007E0007F0B040DF3CF03FEF4CF04FE000E0327AE
:1007F0000D0E042303CE05FE04CE06FE0575A5D915
:10080000EF503C0BE842E8420D081EE1DF6A080E9B
:10081000DF5C16E29AD9020EE926000EC2D9EF502B
:10082000E66EDF50EA6A200FE96E0D0EEA22E5520D
:10083000E750EF6E8AD989DAEE2AEF22DF2AE7D76E
:1008400084D925DA0AD807D023D805D0FD0E211582
:10085000040801E12CD8E5526CD10E010F6B296B15
:100860002C6B2D6B236B106B5AD9EF9E0B7557D9E0
:10087000EF9E0B75FBD9EF9E136B146B156B186B0A
:10088000196B1A6B51D8A6D9030E40D93EEF02F06E
:10089000020E0E01105D02E1ABEF02F0106B23516E
:1008A00004E12BD98C0EEF6E1200236B120021DABB
:1008B00036D9EF50400B01E0010EDF6E0E010B75D3
:1008C000080E005D0BE122CD38FF0F01385103E027
:1008D0000E01100E02D00E01040E006F100513E180
:1008E0001ED938D9F8DD020E0E010F5D03E117D9CC
:1008F000840E07D0DF5003E112D9C80E02D00FD901
:10090000880EEF6E0FD018AF0CD01B511C1107E0F2
:1009100005D01CCEFAFF0E011B51F96EFADF0E0155
:10092000189F106BE55205D10D012051600BE84274
:10093000E842E842E842E842000901E012002151A1
:100940000C0A45E00B0A3FE00C0A31E0010A22E004
:100950000B0A1EE0020A1CE0030A18E0080A10E075
:10096000010A0CE00F0A08E0030A01E012000E0180
:10097000138F080E006F120048EF03F00FEF03F023
:100980000E01010E116F0E0E126F0CD085EF03F0E9
:10099000E8EF04F024510E01116F126B020E1127C3
:1009A0000E0E12231381010E146F138F12000E010D
:1009B000138F0D012451EA6A020FE96E0E0EEA222E
:1009C00022CDEFFF120006D9020E86EF05F01200CD
:1009D000ABD8050EE1260D01220510E120511F0BB9
:1009E00000090CE10E01138F030E0D01215D04E1DE
:1009F0000E01010E1F6F02D00E011F6B0D0122515F
:100A000001E074D020511F0B020870E124510F0B3C
:100A100000096CE024510F0B010868E3200E0E0161
:100A2000005D64E1138F0D0124BF04D04BD9CCD8F5
:100A3000D7D803D04CD9C8D8D7D8EA22020EEFCFE6
:100A4000DBFF08D9010B03E1000EDF9401D0DF8446
:100A500024BF02D037D901D03AD9EA22DECFEEFF47
:100A6000DDCFEDFF030E215D0CE139D907E024BF96
:100A700002D0B6D801D0B8D8EA22EF82840E6AD963
:100A800035D0DF742CD906E045D8EF9E43D8EF8CE3
:100A900008D902D03FD8EF8CDF74DCD8020B02E11A
:100AA0001ED90DE00D0124BF02D09AD801D09CD8E8
:100AB000EA22EF923B0E0B6E3ED9F3D802D03B0EEA
:100AC0003AD90D0124510F0B0C6A260F0B6E0F0E35
:100AD0000C22030E0BC0DBFF040E0CC0DBFF030E69
:100AE000DBCFE9FF040EDBCFEAFFEF90050EE15C00
:100AF00002E2E16AE552E16E1CD021D9C8D836EF96
:100B000006F0FE0EEA6ADB347CEF06F0E66EE66A7B
:100B10008AEF06F0DECFE9FFDDCFEAFF12000BCE51
:100B2000E9FF0CCEEAFF1200D9CFE6FFE1CFD9FFF3
:100B30001200E552E7CFD9FF120024510F0BE96EE6
:100B4000EA6AD890E936EA36120003CEE9FF04CE0D
:100B5000EAFF1200FAD8280EEE6E0D0EED6E1200AE
:100B6000E66E6BEC0CF00B6E050EE15E0B501200A6
:100B7000FE0EEA6ADB3483EF06F0FD0EDB50E8245C
:100B80000D6EFE0EDB50040DF3500D241200DF50ED
:100B9000CDD8EA22EF6ADF50C4D8EA22EF6ADF2A12
:100BA0001200EA22EE50EFCFEAFFE96E1200E66E85
:100BB0001DCEE9FF1ECEEAFF1D2B000E1E23E552BF
:100BC000E750EF6EDF061200EA22EECFDEFFEDCF38
:100BD000DDFF1200000EE66EE66AE66EE66A1200BF
:100BE00024510F0B91EF06F024510F0B96EF06F0F6
:100BF0000C220BC0DEFF0CC0DDFF1200FE0EDBCFAF
:100C0000E6FF10EC02F0E552E5521200F72209006F
:100C1000F5CF11FE0A00F5CF12FE1200160E396F45
:100C20009F0E376F7B0E366F1200010EE66EE66A7E
:100C3000000EE66EE66A1200F76A1125F66E125192
:100C4000F722080012002251F66EF76AD890F636A5
:100C5000F7361200D950020FE96EDACFEAFFEF50F3
:100C60001200010EE66EE66AE66A120005CEE9FFA2
:100C700006CEEAFF1200040DF3CF0BF0F4CF0CF018
:100C8000000E0B260D0EB4DF840EAAEF06F05DD821
:100C9000200EEE6E0D0EED6E120046DF020EE12606
:100CA0001200020EE66EE66ADECFE6FFDDCFE6FF5B
:100CB000050E86EF05F021DF8C0EEF6E30DF840E1F
:100CC000EF6E12003ADF070EE9260E0E120035DF36
:100CD0000B0EE9260E0E120014DFD1EF05F01ADF1D
:100CE000EF50800B1200BDDF270EE66E0F0EB0EF47
:100CF00005F01ADFE6521200FE0BEA36E96E0B0E23
:100D0000E9260E0E1200FE0BEA36E96E070EE92602
:100D10000E0E1200F4EC06F00B6E060EE15E0B50A8
:100D20001200EA6A260FE96E0E0E1200EA6A240F1C
:100D3000E96E0E0E1200EEDEE850EF16120096DF9E
:100D4000EE52080EEF6E36EF06F0020EE926000EA8
:0C0D5000EA221200DFDEE850EF12120071
:040D5C00120012006F
:100D600012003CEF07F012001E0EE66E010EE66E5A
:100D700013EC01F0E552E552400EE66E600EE66EB1
:100D8000000EE66EE66A010EE66E37EC01F00B6EC1
:100D9000050EE15E0B50F3CFEAF0F4CFEBF012005A
:100DA0000E011F0520E10E0120051DE1A098D7DFEF
:100DB00065920E01206B0001100EF36F0E0EF46FA2
:100DC000F307000EF45BF351F411FAE16584080EA9
:100DD000F36F070EF46FF307000EF45BF351F41199
:100DE000FAE16594A0881200D9CFE6FFE1CFD9FFE0
:100DF000FD0EDBCF06F0FE0EDBCF07F0050E06186A
:100E000001E1075034E0E868061802E17F0E071898
:100E10002DE0030E061801E1075026E0020E061829
:100E200001E107501FE0010E061801E1075018E02C
:100E3000740E061801E1075011E0750E061801E165
:100E400007500AE0730E061801E1075010E0720E19
:100E500006180DE107500BD081DF09D080DF07D0E5
:100E600083DF05D080DF03D07CDF01D079DF010E86
:080E7000E552E7CFD9FF1200A3
:080E78000D0120511F0B0108C0
:100E800001E01200245101E01200060E215D1BE179
:100E90002351230A18E0010A0CE0030A14E10E01B1
:100EA000010511E10E015E0E116F0F0E126F090E9A
:100EB00006D00E01D50E116F0F0E126F1C0E146F9F
:100EC000156BC00E136F0D012051600BE842E84214
:100ED000E842E842E842010801E0120021510B0A11
:100EE00026E0080A19E0090A11E0080A05E00B0AE1
:100EF00023E0080A21E012000E01F10E116F000E2E
:100F0000126F010E146F156BC10E0FD00E01800E03
:100F1000136F23CDF1F012000E01F20E116F000ECF
:100F2000126F010E146F156B810E136F12000E01FC
:0A0F3000800E136F22CDF2F01200C4
:060F3A001201000200009C
:100F40000008D8043F000100010203010902290042
:100F5000010100C032090400000203000000092161
:100F600011010001221C0007058103400001070553
:100F700001034000010403090434034D00690063C8
:100F80000072006F00630068006900700020005468
:100F9000006500630068006E006F006C006F006702
:100FA000007900200049006E0063002E001E0343FC
:100FB000006C00690063006B00650072002000484F
:100FC00000490044004100500049000A033000304D
:100FD00000300031000600FF0901A101190129407C
:100FE000150125407508954081001901294091009F
:0B0FF000C04C0F750F790FAD0FCB0F39
:0610000095EF0CF0120058
:02100600FFFFEA
:061008000FEF08F01200DA
:02100E000000E0
:051010000000010000DA
:021016000001D7
:061018005AEF08F012007F
:02101E00DACF27
:10102000E4FFE2CFDAFFE9CFE4FFEACFE4FFF6CF57
:10103000E4FFF7CFE4FFF5CFE4FFF3CFE4FFF4CF15
:10104000E4FFFACFE4FF00EE00F00B0EE80403E348
:10105000EECFE4FFFBD700EE0BF0030EE80403E352
:10106000EECFE4FFFBD7E6527CEC00F0E55200EE59
:101070000DF0030EE80403E3E5CFEDFFFBD700EE30
:101080000AF00B0EE80403E3E5CFEDFFFBD7E5CF55
:10109000FAFFE5CFF4FFE5CFF3FFE5CFF5FFE5CFAE
:1010A000F7FFE5CFF6FFE5CFEAFFE5CFE9FFE5CFB4
:1010B000DAFF1100D8CFE4FFE0CFE4FFE46EDACF2F
:1010C000E4FFE652E552E5CFDAFFE550E5CFE0FF79
:1010D000E5CFD8FF100014D8B7EC01F00001EE51B5
:1010E00006E039DB83A802D0898201D08992200EE4
:1010F0000E01005DF3E16550020BF0E1AAD8EED7D6
:1011000065DB580EDE6E020EDD6E9B8CDFCF0BF0C2
:10111000DF06010EDBCF0CF001E2DB060B500C10FA
:10112000F5E10F01FB0E486FBF0E496FFC0E8916EB
:1011300092169584958692844895C30EC214080928
:10114000C26EC2809E0EC16E829C948C83909580EC
:101150000001EA6BEB6BEC6BED6B010EEE6F16ECC6
:1011600000F0020EE15C02E2E16AE552E16E35D385
:101170002DDBDE6ADD6ADECF0BF0DDCF0CF0D89020
:101180000C5004E6F40E0B5C010E0C5810E2735088
:10119000040B01E0010E0B6E1F0E71140B1002E127
:1011A000000E07D0DF2A010EE6E3DB2AE4D7729AAD
:1011B000010E0B6E020EE15C02E2E16AE552E16EA5
:1011C0000B500BD3D9CFE6FFE1CFD9FF040EE126B8
:1011D0007186DE6ADD6ADECF0BF0DDCF0CF0D890D1
:1011E0000C5004E6F40E0B5C010E0C5809E271B6CB
:1011F00002D0000E22D0DF2A010E01E3DB2AEBD75A
:101200007184020EDB6A030EDB6A020EDBCF0BF089
:10121000030EDBCF0CF0D8900C5004E6640E0B5C90
:10122000000E0C5807E20000020EDB2A030E01E359
:10123000DB2AEBD7729A010E00D00B6E040EE15C34
:1012400002E2E16AE552E16E0B50E552E7CFD9FFC9
:101250001200D9CFE6FFE1CFD9FF430EE12600010E
:10126000EA51EB1102E1000E08D0EAC0E9FFEBC041
:10127000EAFFEF50800B01E0010E000901E047D2C8
:10128000030E60C0DBFF00016051410A01E1E9D1BA
:10129000010A01E1DED1700A01E1D4D1120A01E1B3
:1012A00093D1030A01E149D1010A01E13ED1720A59
:1012B00001E126D1030A01E105D1010A01E1B1D022
:1012C000490A01E1A5D0010A01E19BD00F0A01E121
:1012D0008BD0010A01E181D0030A70E0010A6BE0C2
:1012E000070A60E0010A57E0030A44E0010A3DE012
:1012F000920A2CE0B50A1BE0B60A08E0010A01E0F8
:10130000B6D10001EE6B89708972B4D18350040BA1
:1013100001E0010EE76E040EE7CFDBFF8350080B00
:1013200001E0010EE76E050EE7CFDBFFA3D1F9D98F
:10133000F3CFDEFFF4CFDDFF040EDFCFDBFF010EC6
:10134000DB50E76E050EE7CFDBFF94D10001EE6BBB
:1013500000016151E8B08980E8A0899000016251E4
:10136000E8B08982E8A0899285D10F0149959384DC
:10137000819480D19394020EDB6A780EF36E020E94
:10138000DBCFF4FFF350F45C04E20000020EDB2A32
:10139000F4D793846FD100016151E8B08184E8A053
:1013A000819468D18150040B01E0010EE76E040EB8
:1013B000E7CFDBFF5FD1939681865CD18150080B2C
:1013C00001E0010EE76E020EE7CFDBFF020EDB50FD
:1013D000E76E040EE7CFDBFF4DD100016151E8B0AD
:1013E0008186E8A0819646D100016251E8B08388E9
:1013F000E8A0839800016151E8B09588E8A095982D
:1014000039D100016151E8B08388E8A0839832D1D6
:101410008350100B01E0010EE76E040EE7CFDBFFF7
:1014200029D1060ECA6ECB680001615106E00C0E90
:10143000BA6E0E010E0EC56F93940001625106E064
:101440000C0EB46E0E01120EC66F9396000163511E
:1014500004E00F010C0E126F93980001645104E038
:101460000F010C0E0F6F939A0001655104E00F01FC
:101470000C0E036F949C0001665104E00F010C0EEA
:10148000006F949E0001675107E00F010C0E156F6D
:101490000E01160ECB6F94900001685104E00F010D
:1014A0000C0E066F94920001695104E00F010C0EBE
:1014B0000C6F939C00016A5104E00F010C0E096F40
:1014C000939ED8D0040EBBCFDBFF050EB5CFDBFF5C
:1014D000060E13CFDBFF070E10CFDBFF080E04CF85
:1014E000DBFF090E01CFDBFF0A0E16CFDBFF0B0E71
:1014F00007CFDBFF0C0E0DCFDBFF0D0E0ACFDBFF9E
:1015000061C0BBFF62C0B5FF63C013FF64C010FFC2
:1015100065C004FF66C001FF67C016FF68C007FF13
:1015200069C00DFF6AC00AFFA5D0770E746E280E41
:10153000726E95809582829C9DD0718019DE000923
:1015400001E07DD061C075FF13DE000901E077D0B6
:1015500071BC6AD0010EF36E020EF3CFDBFF030EF7
:1015600060C0DBFF000162516207000921E02ADE52
:10157000000901E064D0D950030F0B6EDACF0CF0F4
:10158000020EDBCFF3FFDB2AF3500F010B24E96ED1
:10159000000E0C20EA6E75CFEFFF000162510008CB
:1015A00006E2719A7188E4DD000901E048D0DAD7DB
:1015B000718A7188DDDD000901E041D07184D8DDD8
:1015C000000901E03CD056D07180D2DD000901E075
:1015D00036D061C075FFCCDD000901E030D071BCB0
:1015E00023D0030EF36E020EF3CFDBFF0001625136
:1015F0006207000913E0020EDBCFF3FFDB2AF35092
:10160000EA6A600FE96E000EEA22EF50756EB0DDF7
:10161000000901E014D071BC07D0E8D77184A8DDBF
:10162000000901E00CD026D07184A2DD000901E0A0
:1016300006D0FE0EF36E030EF3CFDBFF1BD0030EBE
:10164000DB6818D00F01FB0E486F0F01BF0E496F0A
:1016500011D0949E938A81989398C78C220EC66E5F
:1016600009D0040EC9CFDBFF61C0C9FF03D0030E50
:10167000DB6A00D00001EC51ED1102E1000E08D050
:10168000ECC0E9FFEDC0EAFFEF50800B01E0010E76
:1016900000092AE1030EDB5027E0400EE66EE66A01
:1016A000D950030FE66E000EDA20E66EA00EE66E4D
:1016B000000EE66E40EC0CF00B6E060EE15E0B5079
:1016C000400EE66EA00EE66E000EE66E010EE66EB1
:1016D000010EE66E37EC01F00B6E050EE15E0B506D
:1016E000F3CFECF0F4CFEDF0400EE66E600EE66E58
:1016F000000EE66EE66A010EE66E37EC01F00B6E48
:10170000050EE15E0B50F3CFEAF0F4CFEBF0430EA1
:10171000E15C02E2E16AE552E16EE552E7CFD9FF12
:10172000120054D8DE6ADD6AC282C2B2FED7C3504C
:10173000DF6E010EC4CFDBFFDECF0BF0DDCF0CF090
:101740000BC0F3FF0CC0F4FF020EE15C02E2E16AA1
:10175000E552E16E42D00001EF51F01104E1100EAC
:10176000EF6F270EF06FEF07000EF05B65A207D05A
:10177000EF51F0112AE1897089B013D01CD00E010D
:10178000005102E1899017D0000502E1898009D05B
:10179000020E005D02E189800ED0040E005D03E1BF
:1017A000899089821200100E005D07E10001EF515F
:1017B000F0110BE1897089921200200E005D05E1A5
:1017C0000001EF51F01101E189701200D9CFE6FF5D
:1017D000E1CFD9FF020EE1261200E552E7CFD9FF93
:0217E0001200F5
:0E17E2001E0EF66E000EF76E000EF86E000181
:1017F0000900F550E56F0900F550E66F03E1E56774
:1018000001D03DD00900F550E06F0900F550E16FBF
:101810000900F550E26F09000900F550E96E090072
:10182000F550EA6E090009000900F550E36F090060
:10183000F550E46F09000900F6CFE7F0F7CFE8F0C4
:10184000F8CFE9F0E0C0F6FFE1C0F7FFE2C0F8FF33
:101850000001E35302E1E45307E00900F550EE6EA6
:10186000E307F8E2E407F9D7E7C0F6FFE8C0F7FFBF
:10187000E9C0F8FF0001E507000EE65BBFD71200E4
:10188000D9CFE6FFDACFE6FFFA0EE3CFD9FFFB0EA2
:10189000E3CFDAFFFC0EE3CFE9FFFD0EE3CFEAFF73
:1018A000E9CFF3FFEACFF4FFF80EE35003E1F90EBE
:1018B000E35008E0F80EE30602E2F90EE306DECF9D
:1018C000EEFFF2D7FF0EE3CFDAFFE552FF0EE3CFD4
:1018D000D9FFE5521200FE0EE3CFE9FFFF0EE3CF82
:1018E000EAFFE9CFF3FFEACFF4FFFB0EE35003E199
:1018F000FC0EE35009E0FB0EE30602E2FC0EE306F9
:0A190000FD0EE350EE6EF1D7120069
:06190A00B00EF36E00EECA
:1019100000F00E0E01D81200EA6002D0EE6AFCD789
:0A192000F350E9601200EE6AFCD7F4
:06192A001CEE00F02CEEA3
:1019300000F0F86A0A9CF1EC0BF003EC00F06BECA1
:0619400008F0FBD71200C5
:020000040001F9
:01FFF800B850
:01FFF900F413
:01FFFA007D89
:01FFFB00FF06
:01FFFC0063A1
:01FFFD00FA09
:01FFFE008181
:01FFFF00F908
:00000001FF
